{
  "contractName": "subcontract",
  "abi": [
    {
      "inputs": [
        {
          "internalType": "uint64",
          "name": "_no",
          "type": "uint64"
        },
        {
          "internalType": "string",
          "name": "_title",
          "type": "string"
        },
        {
          "internalType": "string",
          "name": "_contents",
          "type": "string"
        }
      ],
      "name": "add_contract",
      "outputs": [],
      "stateMutability": "nonpayable",
      "type": "function"
    },
    {
      "inputs": [
        {
          "internalType": "uint64",
          "name": "_no",
          "type": "uint64"
        }
      ],
      "name": "sign_contract",
      "outputs": [],
      "stateMutability": "nonpayable",
      "type": "function"
    },
    {
      "inputs": [
        {
          "internalType": "uint64",
          "name": "_no",
          "type": "uint64"
        }
      ],
      "name": "confirm_contract",
      "outputs": [],
      "stateMutability": "nonpayable",
      "type": "function"
    },
    {
      "inputs": [
        {
          "internalType": "uint64",
          "name": "_no",
          "type": "uint64"
        }
      ],
      "name": "refuse_contract",
      "outputs": [],
      "stateMutability": "nonpayable",
      "type": "function"
    },
    {
      "inputs": [
        {
          "internalType": "uint64",
          "name": "_no",
          "type": "uint64"
        }
      ],
      "name": "view_contract",
      "outputs": [
        {
          "internalType": "string",
          "name": "",
          "type": "string"
        },
        {
          "internalType": "string",
          "name": "",
          "type": "string"
        },
        {
          "internalType": "uint8",
          "name": "",
          "type": "uint8"
        },
        {
          "internalType": "address",
          "name": "",
          "type": "address"
        },
        {
          "internalType": "address",
          "name": "",
          "type": "address"
        }
      ],
      "stateMutability": "view",
      "type": "function",
      "constant": true
    },
    {
      "inputs": [],
      "name": "view_contracts",
      "outputs": [
        {
          "internalType": "uint256",
          "name": "",
          "type": "uint256"
        },
        {
          "internalType": "uint64[]",
          "name": "",
          "type": "uint64[]"
        }
      ],
      "stateMutability": "view",
      "type": "function",
      "constant": true
    }
  ],
  "bytecode": "0x608060405234801561001057600080fd5b50610ec0806100206000396000f3fe608060405234801561001057600080fd5b50600436106100625760003560e01c80638840abb314610067578063a577b33e14610083578063c64330c3146100b7578063d8033f69146100d6578063db3e0a77146100f2578063f9f9846c1461010e575b600080fd5b610081600480360381019061007c919061076a565b61012a565b005b61009d6004803603810190610098919061076a565b6101de565b6040516100ae959493929190610884565b60405180910390f35b6100bf610445565b6040516100cd9291906109bc565b60405180910390f35b6100f060048036038101906100eb9190610b21565b6104e5565b005b61010c6004803603810190610107919061076a565b6105ae565b005b6101286004803603810190610123919061076a565b610662565b005b6000339050806000808467ffffffffffffffff1667ffffffffffffffff16815260200190815260200160002060030160006101000a81548173ffffffffffffffffffffffffffffffffffffffff021916908373ffffffffffffffffffffffffffffffffffffffff16021790555060016000808467ffffffffffffffff1667ffffffffffffffff16815260200190815260200160002060020160006101000a81548160ff021916908360ff1602179055505050565b6060806000806000806000808867ffffffffffffffff1667ffffffffffffffff168152602001908152602001600020600001805461021b90610bdb565b80601f016020809104026020016040519081016040528092919081815260200182805461024790610bdb565b80156102945780601f1061026957610100808354040283529160200191610294565b820191906000526020600020905b81548152906001019060200180831161027757829003601f168201915b5050505050905060008060008967ffffffffffffffff1667ffffffffffffffff16815260200190815260200160002060010180546102d190610bdb565b80601f01602080910402602001604051908101604052809291908181526020018280546102fd90610bdb565b801561034a5780601f1061031f5761010080835404028352916020019161034a565b820191906000526020600020905b81548152906001019060200180831161032d57829003601f168201915b5050505050905060008060008a67ffffffffffffffff1667ffffffffffffffff16815260200190815260200160002060020160009054906101000a900460ff16905060008060008b67ffffffffffffffff1667ffffffffffffffff16815260200190815260200160002060020160019054906101000a900473ffffffffffffffffffffffffffffffffffffffff16905060008060008c67ffffffffffffffff1667ffffffffffffffff16815260200190815260200160002060030160009054906101000a900473ffffffffffffffffffffffffffffffffffffffff169050848484848499509950995099509950505050505091939590929450565b6000606060006001805490509050806001808054806020026020016040519081016040528092919081815260200182805480156104d557602002820191906000526020600020906000905b82829054906101000a900467ffffffffffffffff1667ffffffffffffffff16815260200190600801906020826007010492830192600103820291508084116104905790505b5050505050905092509250509091565b816000808567ffffffffffffffff1667ffffffffffffffff168152602001908152602001600020600001908161051b9190610db8565b50806000808567ffffffffffffffff1667ffffffffffffffff16815260200190815260200160002060010190816105529190610db8565b5060018390806001815401808255809150506001900390600052602060002090600491828204019190066008029091909190916101000a81548167ffffffffffffffff021916908367ffffffffffffffff160217905550505050565b6000339050806000808467ffffffffffffffff1667ffffffffffffffff16815260200190815260200160002060020160016101000a81548173ffffffffffffffffffffffffffffffffffffffff021916908373ffffffffffffffffffffffffffffffffffffffff16021790555060026000808467ffffffffffffffff1667ffffffffffffffff16815260200190815260200160002060020160006101000a81548160ff021916908360ff1602179055505050565b6000339050806000808467ffffffffffffffff1667ffffffffffffffff16815260200190815260200160002060030160006101000a81548173ffffffffffffffffffffffffffffffffffffffff021916908373ffffffffffffffffffffffffffffffffffffffff16021790555060096000808467ffffffffffffffff1667ffffffffffffffff16815260200190815260200160002060020160006101000a81548160ff021916908360ff1602179055505050565b6000604051905090565b600080fd5b600080fd5b600067ffffffffffffffff82169050919050565b6107478161072a565b811461075257600080fd5b50565b6000813590506107648161073e565b92915050565b6000602082840312156107805761077f610720565b5b600061078e84828501610755565b91505092915050565b600081519050919050565b600082825260208201905092915050565b60005b838110156107d15780820151818401526020810190506107b6565b60008484015250505050565b6000601f19601f8301169050919050565b60006107f982610797565b61080381856107a2565b93506108138185602086016107b3565b61081c816107dd565b840191505092915050565b600060ff82169050919050565b61083d81610827565b82525050565b600073ffffffffffffffffffffffffffffffffffffffff82169050919050565b600061086e82610843565b9050919050565b61087e81610863565b82525050565b600060a082019050818103600083015261089e81886107ee565b905081810360208301526108b281876107ee565b90506108c16040830186610834565b6108ce6060830185610875565b6108db6080830184610875565b9695505050505050565b6000819050919050565b6108f8816108e5565b82525050565b600081519050919050565b600082825260208201905092915050565b6000819050602082019050919050565b6109338161072a565b82525050565b6000610945838361092a565b60208301905092915050565b6000602082019050919050565b6000610969826108fe565b6109738185610909565b935061097e8361091a565b8060005b838110156109af5781516109968882610939565b97506109a183610951565b925050600181019050610982565b5085935050505092915050565b60006040820190506109d160008301856108ef565b81810360208301526109e3818461095e565b90509392505050565b600080fd5b600080fd5b7f4e487b7100000000000000000000000000000000000000000000000000000000600052604160045260246000fd5b610a2e826107dd565b810181811067ffffffffffffffff82111715610a4d57610a4c6109f6565b5b80604052505050565b6000610a60610716565b9050610a6c8282610a25565b919050565b600067ffffffffffffffff821115610a8c57610a8b6109f6565b5b610a95826107dd565b9050602081019050919050565b82818337600083830152505050565b6000610ac4610abf84610a71565b610a56565b905082815260208101848484011115610ae057610adf6109f1565b5b610aeb848285610aa2565b509392505050565b600082601f830112610b0857610b076109ec565b5b8135610b18848260208601610ab1565b91505092915050565b600080600060608486031215610b3a57610b39610720565b5b6000610b4886828701610755565b935050602084013567ffffffffffffffff811115610b6957610b68610725565b5b610b7586828701610af3565b925050604084013567ffffffffffffffff811115610b9657610b95610725565b5b610ba286828701610af3565b9150509250925092565b7f4e487b7100000000000000000000000000000000000000000000000000000000600052602260045260246000fd5b60006002820490506001821680610bf357607f821691505b602082108103610c0657610c05610bac565b5b50919050565b60008190508160005260206000209050919050565b60006020601f8301049050919050565b600082821b905092915050565b600060088302610c6e7fffffffffffffffffffffffffffffffffffffffffffffffffffffffffffffffff82610c31565b610c788683610c31565b95508019841693508086168417925050509392505050565b6000819050919050565b6000610cb5610cb0610cab846108e5565b610c90565b6108e5565b9050919050565b6000819050919050565b610ccf83610c9a565b610ce3610cdb82610cbc565b848454610c3e565b825550505050565b600090565b610cf8610ceb565b610d03818484610cc6565b505050565b5b81811015610d2757610d1c600082610cf0565b600181019050610d09565b5050565b601f821115610d6c57610d3d81610c0c565b610d4684610c21565b81016020851015610d55578190505b610d69610d6185610c21565b830182610d08565b50505b505050565b600082821c905092915050565b6000610d8f60001984600802610d71565b1980831691505092915050565b6000610da88383610d7e565b9150826002028217905092915050565b610dc182610797565b67ffffffffffffffff811115610dda57610dd96109f6565b5b610de48254610bdb565b610def828285610d2b565b600060209050601f831160018114610e225760008415610e10578287015190505b610e1a8582610d9c565b865550610e82565b601f198416610e3086610c0c565b60005b82811015610e5857848901518255600182019150602085019450602081019050610e33565b86831015610e755784890151610e71601f891682610d7e565b8355505b6001600288020188555050505b50505050505056fea2646970667358221220d3694f359c455965b309bc9569521e4c1bbba4c59f2481349475386291db160664736f6c63430008120033",
  "immutableReferences": {},
  "source": "// SPDX-License-Identifier: MIT\r\npragma solidity >= 0.4.22 < 0.9.0;\r\n\r\ncontract subcontract {\r\n    //   \r\n    struct contract_info{\r\n        string title;\r\n        string contents;\r\n        uint8 state;     // 0   , \r\n                        //  1 :   , \r\n                        //  2 :   , \r\n                        //  9 :  \r\n        address a_company;\r\n        address b_company;\r\n    }\r\n\r\n    // mapping data \r\n    mapping (uint64 => contract_info) internal sub_contract;\r\n\r\n    //     \r\n    uint64[] internal contracts;\r\n\r\n    function add_contract(\r\n        uint64 _no,\r\n        string memory _title, \r\n        string memory _contents\r\n        ) public {\r\n            // mapping _no     _title, _contracs  \r\n            sub_contract[_no].title = _title;\r\n            sub_contract[_no].contents = _contents;\r\n            //     \r\n            contracts.push(_no);\r\n        }\r\n\r\n    function sign_contract(uint64 _no) public {\r\n        //    \r\n        address signer = msg.sender;\r\n\r\n        //    b_company \r\n        sub_contract[_no].b_company = signer;\r\n        //    state 1 \r\n        sub_contract[_no].state = 1;\r\n    }\r\n\r\n    function confirm_contract(uint64 _no) public{\r\n        //    \r\n        address confirmer = msg.sender;\r\n\r\n        //    a_company \r\n        sub_contract[_no].a_company = confirmer;\r\n        //       state 2\r\n        sub_contract[_no].state = 2;\r\n    }\r\n\r\n    function refuse_contract(uint64 _no) public {\r\n        address refuser = msg.sender;\r\n\r\n        sub_contract[_no].b_company = refuser;\r\n        sub_contract[_no].state = 9;\r\n    }\r\n\r\n    // contract    \r\n    function view_contract(uint64 _no) public view returns (\r\n        string memory, string memory, uint8, address, address\r\n    ){\r\n        // mapping        \r\n        string memory _title = sub_contract[_no].title;\r\n        string memory _contents = sub_contract[_no].contents;\r\n        uint8 _state = sub_contract[_no].state;\r\n        address _a = sub_contract[_no].a_company;\r\n        address _b = sub_contract[_no].b_company;\r\n        // \r\n        return (_title, _contents, _state, _a, _b);\r\n    }\r\n\r\n    function view_contracts() public view returns(uint, uint64[] memory){\r\n        uint count = contracts.length;\r\n        return (count, contracts);\r\n    }\r\n    \r\n\r\n\r\n}",
  "sourcePath": "C:\\apps\\subcontract_server\\contracts\\sub_contract.sol",
  "compiler": {
    "name": "solc",
    "version": "0.8.18+commit.87f61d96.Emscripten.clang"
  },
  "schemaVersion": "3.4.14",
  "updatedAt": "2023-06-03T08:38:51.186Z",
  "networkType": "ethereum",
  "devdoc": {
    "kind": "dev",
    "methods": {},
    "version": 1
  },
  "userdoc": {
    "kind": "user",
    "methods": {},
    "version": 1
  }
}